{
  "contractName": "Garantia",
  "abi": [
    {
      "constant": true,
      "inputs": [],
      "name": "productosCount",
      "outputs": [
        {
          "name": "",
          "type": "uint256"
        }
      ],
      "payable": false,
      "stateMutability": "view",
      "type": "function"
    },
    {
      "constant": true,
      "inputs": [
        {
          "name": "",
          "type": "uint256"
        }
      ],
      "name": "productos",
      "outputs": [
        {
          "name": "id",
          "type": "uint256"
        },
        {
          "name": "comprador",
          "type": "address"
        },
        {
          "name": "nombreProducto",
          "type": "string"
        },
        {
          "name": "numSerie",
          "type": "string"
        },
        {
          "name": "fecha",
          "type": "uint256"
        }
      ],
      "payable": false,
      "stateMutability": "view",
      "type": "function"
    },
    {
      "inputs": [],
      "payable": false,
      "stateMutability": "nonpayable",
      "type": "constructor"
    },
    {
      "anonymous": false,
      "inputs": [
        {
          "indexed": true,
          "name": "_productoId",
          "type": "uint256"
        }
      ],
      "name": "garantiaEvent",
      "type": "event"
    },
    {
      "constant": false,
      "inputs": [
        {
          "name": "_nombre",
          "type": "string"
        },
        {
          "name": "_numSerie",
          "type": "string"
        }
      ],
      "name": "addProducto",
      "outputs": [],
      "payable": false,
      "stateMutability": "nonpayable",
      "type": "function"
    }
  ],
  "bytecode": "0x608060405234801561001057600080fd5b506100946040805190810160405280601281526020017f53696c6c6120626562c3a92043686963636f00000000000000000000000000008152506040805190810160405280600c81526020017f343334343466723333323536000000000000000000000000000000000000000081525061011c640100000000026401000000009004565b6101176040805190810160405280600e81526020017f506c61792053746174696f6e20340000000000000000000000000000000000008152506040805190810160405280600c81526020017f393835353933335266333332000000000000000000000000000000000000000081525061011c640100000000026401000000009004565b6102d4565b6000806000600154925060016000815480929190600101919050555033915042905060a0604051908101604052808481526020018373ffffffffffffffffffffffffffffffffffffffff1681526020018681526020018581526020018281525060008060015481526020019081526020016000206000820151816000015560208201518160010160006101000a81548173ffffffffffffffffffffffffffffffffffffffff021916908373ffffffffffffffffffffffffffffffffffffffff16021790555060408201518160020190805190602001906101fd92919061022f565b50606082015181600301908051906020019061021a92919061022f565b50608082015181600401559050505050505050565b828054600181600116156101000203166002900490600052602060002090601f016020900481019282601f1061027057805160ff191683800117855561029e565b8280016001018555821561029e579182015b8281111561029d578251825591602001919060010190610282565b5b5090506102ab91906102af565b5090565b6102d191905b808211156102cd5760008160009055506001016102b5565b5090565b90565b6105f9806102e36000396000f300608060405260043610610057576000357c0100000000000000000000000000000000000000000000000000000000900463ffffffff168063878e181d1461005c57806388e93cc8146100875780639955363614610136575b600080fd5b34801561006857600080fd5b50610071610289565b6040518082815260200191505060405180910390f35b34801561009357600080fd5b50610134600480360381019080803590602001908201803590602001908080601f0160208091040260200160405190810160405280939291908181526020018383808284378201915050505050509192919290803590602001908201803590602001908080601f016020809104026020016040519081016040528093929190818152602001838380828437820191505050505050919291929050505061028f565b005b34801561014257600080fd5b50610161600480360381019080803590602001909291905050506103a2565b604051808681526020018573ffffffffffffffffffffffffffffffffffffffff1673ffffffffffffffffffffffffffffffffffffffff1681526020018060200180602001848152602001838103835286818151815260200191508051906020019080838360005b838110156101e35780820151818401526020810190506101c8565b50505050905090810190601f1680156102105780820380516001836020036101000a031916815260200191505b50838103825285818151815260200191508051906020019080838360005b8381101561024957808201518184015260208101905061022e565b50505050905090810190601f1680156102765780820380516001836020036101000a031916815260200191505b5097505050505050505060405180910390f35b60015481565b6000806000600154925060016000815480929190600101919050555033915042905060a0604051908101604052808481526020018373ffffffffffffffffffffffffffffffffffffffff1681526020018681526020018581526020018281525060008060015481526020019081526020016000206000820151816000015560208201518160010160006101000a81548173ffffffffffffffffffffffffffffffffffffffff021916908373ffffffffffffffffffffffffffffffffffffffff1602179055506040820151816002019080519060200190610370929190610528565b50606082015181600301908051906020019061038d929190610528565b50608082015181600401559050505050505050565b60006020528060005260406000206000915090508060000154908060010160009054906101000a900473ffffffffffffffffffffffffffffffffffffffff1690806002018054600181600116156101000203166002900480601f01602080910402602001604051908101604052809291908181526020018280546001816001161561010002031660029004801561047a5780601f1061044f5761010080835404028352916020019161047a565b820191906000526020600020905b81548152906001019060200180831161045d57829003601f168201915b505050505090806003018054600181600116156101000203166002900480601f0160208091040260200160405190810160405280929190818152602001828054600181600116156101000203166002900480156105185780601f106104ed57610100808354040283529160200191610518565b820191906000526020600020905b8154815290600101906020018083116104fb57829003601f168201915b5050505050908060040154905085565b828054600181600116156101000203166002900490600052602060002090601f016020900481019282601f1061056957805160ff1916838001178555610597565b82800160010185558215610597579182015b8281111561059657825182559160200191906001019061057b565b5b5090506105a491906105a8565b5090565b6105ca91905b808211156105c65760008160009055506001016105ae565b5090565b905600a165627a7a72305820eb5e21178c07277483e1beb2c30a514a39cef4506998ba9942b823495a6855f20029",
  "source": "pragma solidity ^0.4.25;\n\ncontract Garantia {\n    // Modelo de Datos\n    struct  Producto {\n        uint id;\n        address comprador;\n        string nombreProducto;\n        string numSerie;\n        uint fecha;\n      \n    }\n\n    // Alamcenar a la gente que usa la Dapp\n    mapping (uint => Producto) public productos;\n\n    // Evento que se dará al añadir un Producto\n    event garantiaEvent (\n        uint indexed _productoId\n    );\n\n   \n    //Para tener constancia del numero de productos que se van integrando\n    uint public  productosCount;\n\n    //Pasa como parametros los datos que debe de añadir el usuario\n    function addProducto ( string memory _nombre, string memory _numSerie) public {\n        \n        uint _id = productosCount;\n        productosCount ++;\n      \n\t    address _comprador = msg.sender;\n        uint _fecha  = now;\n       productos[productosCount] = Producto(_id, _comprador, _nombre, _numSerie, _fecha);\n      \n    }\n\n    // Constructor. Inicialmente estará constituido por dos Productos\nconstructor () public {\n\n    addProducto(\"Silla bebé Chicco\", \"43444fr33256\");\n    addProducto(\"Play Station 4\", \"9855933Rf332\");\n\t\n}\n\n\n//Circuit Breaker\n/*\nbool private stopped = false;\naddress private owner;\n\nmodifier isAdmin() {\n    if(msg.sender != owner) {\n        throw;\n    }\n    _\n}\n\nfunction toggleContractActive() isAdmin public\n{\n    // You can add an additional modifier that restricts \n    //stopping a contract to be based on another action, such as a vote of users\n    stopped = !stopped;\n}\n\nmodifier stopInEmergency { if (!stopped) _ }\nmodifier onlyInEmergency { if (stopped) _ }\n\nfunction deposit() stopInEmergency public\n{\n    // some code\n}\n\nfunction withdraw() onlyInEmergency public\n{\n    // some code\n} \n*/\n\n}",
  "sourcePath": "/home/jules/Escritorio/election-2019_update/contracts/Garantia.sol",
  "compiler": {
    "name": "solc",
    "version": "0.4.25+commit.59dbf8f1.Emscripten.clang"
  },
  "schemaVersion": "3.0.10",
  "updatedAt": "2019-09-01T15:43:50.715Z",
  "devdoc": {
    "methods": {}
  },
  "userdoc": {
    "methods": {}
  }
}